:1010000000000120B5120000DD120000DF12000018
:10101000E1120000E3120000E512000000000000F1
:10102000000000000000000000000000E7120000C7
:10103000E912000000000000EB120000ED120000B9
:10104000EF120000EF120000EF120000EF1200009C
:10105000EF120000EF120000EF120000EF1200008C
:10106000EF120000EF120000EF120000EF1200007C
:10107000EF120000EF120000EF120000EF1200006C
:10108000EF120000EF120000EF120000EF1200005C
:10109000EF120000EF120000EF120000EF1200004C
:1010A000EF120000EF120000EF120000EF1200003C
:1010B000EF120000EF12000000000000000000002E
:1010C000EF120000EF120000EF120000EF1200001C
:1010D000EF120000EF120000EF120000000000000D
:1010E0000000000000000000000000000000000000
:1010F00000000000000000000000000000000000F0
:1011000000000000000000000000000000000000DF
:1011100000000000000000000000000000000000CF
:1011200000000000000000000000000000000000BF
:1011300000000000000000000000000000000000AF
:10114000000000000000000000000000000000009F
:10115000000000000000000000000000000000008F
:10116000000000000000000000000000000000007F
:10117000000000000000000000000000000000006F
:10118000000000000000000000000000000000005F
:10119000000000000000000000000000000000004F
:1011A000000000000000000000000000000000003F
:1011B000000000000000000000000000000000002F
:1011C000000000000000000000000000000000001F
:1011D000000000000000000000000000000000000F
:1011E00000000000000000000000000000000000FF
:1011F00000000000000000000000000000000000EF
:1012000010B5054C237833B9044B13B10448AFF340
:1012100000800123237010BD740000200000000036
:101220000C18000008B5034B1BB103490348AFF38A
:10123000008008BD00000000780000200C180000AD
:10124000154B002B08BF134B9D46A3F5803A002198
:101250008B460F461348144A121A00F0B3FA0F4B8C
:10126000002B00D098470E4B002B00D09847002051
:10127000002104000D000D48002802D00C48AFF3F7
:10128000008000F07BFA2000290000F071F800F0E7
:1012900061FA00BF0000080000000120000000000B
:1012A00000000000740000209000002000000000FA
:1012B000000000000649074A074B9B1A03DD043B68
:1012C000C858D050FBDC00F06BF8FFF7B9FF000006
:1012D000181800000800002074000020FEE7FEE758
:1012E000FEE7FEE7FEE7FEE7FEE7FEE7FEE7FEE7D6
:1012F000074B4FF0A041185CD1F804350122824021
:1013000022EA03001340C1F80805C1F80C35704704
:10131000F0170000C20730B41AD54FF0A0430322E3
:10132000C3F844274FF40035C3F848274FF480240E
:10133000C3F84C274FF40021C3F850274FF4801214
:10134000C3F80855C3F80845C3F80815C3F80825BD
:1013500083070AD54FF0A0430C22C3F83427C3F803
:101360003827C3F83C27C3F8402730BC704700BF7C
:1013700070B50120094DFFF7CDFF45F001050026AE
:101380003046FFF7B5FF64244FF47A40A847013C8C
:10139000FAD10136042EF3D1F1E700BF00180000A6
:1013A00030B4B84B1B78062B20D0B74B1B68062BEC
:1013B00000F08180B54AD2F8883043F47003C2F857
:1013C0008830BFF34F8FBFF36F8F4FF01023D3F8E8
:1013D0000022002AC0F28681D3F80432002BC0F22A
:1013E0008181AB4BAB4A1A6030BC7047AA4B1B687B
:1013F0001D07DAD1A94B1B6803F0F002302A00F078
:101400009B8003F0E003402B00F09680A34B1B6809
:1014100003F0F003302B00F0A080A04B1B6803F01A
:10142000F002302A77D003F0E003402B73D09B4BBF
:101430001B6803F0F003302B00F01481974B1B68FE
:1014400003F0F002302A52D003F0E003402B4ED0DC
:10145000924B1B6803F0F003302B00F0F5808F4BAC
:101460001B6803F0F003302B00F0D7808B4B1B6818
:1014700003F0F003502B7ED0884B1B6803F0F00282
:10148000302A23D003F0E003402B1FD0834B1B688E
:1014900003F0F002302A03D003F0E003402B84D1A4
:1014A0004FF08043D3F80024D20744BF6FF001020D
:1014B000C3F8002479E77A4B1B68062B7FF47AAFD8
:1014C000784A136843F48063136073E7764B6D4A80
:1014D0001B681278754903F04F03062A0B607FF4EE
:1014E00064AF6D4B1B6819077FF45FAFCEE7654AA9
:1014F00011784FF0804300220629C3F80C21C3F86D
:101500001021C3F838257FF450AF634B1B681B07CD
:101510007FF44BAF9CE7664B5A4A1B6812786549CB
:10152000C3F34233062A0B607FF43FAF5A4B1B686C
:1015300019077FF43AAF7AE75F4B524A1B6812787B
:101540005E49C3F30423062A0B607FF42EAF524B8F
:101550001B681C077FF429AF58E74A4B584A1B7891
:1015600058491160062B7FF420AF4B4B1B681807BE
:101570007FF41BAF51E74FF08052534BD2F8041465
:10158000C3F82015D2F80814C3F82415D2F80C14A7
:10159000C3F82815D2F81014C3F82C15D2F8141477
:1015A000C3F83015D2F81814C3F83415D2F81C1447
:1015B000C3F84015D2F82014C3F84415D2F8241407
:1015C000C3F84815D2F82814C3F84C15D2F82C14D7
:1015D000C3F85015D2F83014C3F85415D2F83414A7
:1015E000C3F86015D2F83814C3F86415D2F83C1467
:1015F000C3F86815D2F840142248C3F86C15D2F825
:1016000044140278C3F87015062A7FF4CEAE224B3C
:101610001B6818077FF4C9AE2EE71A4B2B4C1B78BA
:101620002B492C482C4A0525256001250D600024F6
:101630003F21062B046011607FF4B7AE164B1B6888
:101640001C077FF4B2AE11E70E4B244A1B7803212E
:10165000062B11607FF4A9AE0F4B1B681D077FF4AA
:10166000A4AEFCE61E4A0749D368097823F08073CC
:101670000629D3607FF499AE074B1B681A077FF4E5
:1016800094AEDBE6E00F00F03001001000ED00E06A
:10169000080000200090D003E40F00F0E80F00F0F5
:1016A000340100103C17004058020010E40E0040C6
:1016B000440200103C050040240300104035014066
:1016C00074C007400DF0ADBA00C000401056004095
:1016D000885600401856004014560040A0050040AF
:1016E000F0ED00E0184A0123C2F80435D2F80034C6
:1016F000002BFBD04FF010231521134AC3F8001222
:10170000D2F80034002BFBD04FF0102315210E4AE5
:10171000C3F80412D2F80034002BFBD000230A498E
:10172000C2F80435D1F80034002BFBD0BFF34F8F43
:101730000649074BCA6802F4E0621343CB60BFF36B
:101740004F8F00BFFDE700BF00E0014000ED00E06B
:101750000400FA0508B5074B044613B10021AFF3A6
:101760000080054B1868836A03B19847204600F053
:1017700031F800BF000000000818000070B50D4DE2
:101780000D4C641BA4100026A64209D10B4D0C4C35
:1017900000F022F8641BA4100026A64205D170BDFB
:1017A00055F8043B98470136EEE755F8043B984757
:1017B0000136F2E76C0000206C0000206C00002075
:1017C0007000002002440346934200D1704703F8A2
:1017D000011BF9E7FEE700BFF8B500BFF8BC08BC85
:1017E0009E467047F8B500BFF8BC08BC9E467047DF
:1017F000111213140000000000000000000000009F
:101800000338FDD8704700000C00002000000000E5
:0818100030FAFF7F0100000027
:101818000090D0030000000000000000000000005D
:1018280000000000000000000000000000000000B0
:1018380000000000000000000000000000000000A0
:101848000000000000000000000000000000000090
:101858000000000000000000000000000000000080
:101868000000000000000000000000000000000070
:0C1878000000000025120000011200001A
:04000003000012B532
:00000001FF
