:1010000000000120B5120000DD120000DF12000018
:10101000E1120000E3120000E512000000000000F1
:10102000000000000000000000000000E7120000C7
:10103000E912000000000000EB120000ED120000B9
:10104000EF120000EF12000055130000F112000033
:10105000EF120000EF120000EF120000EF1200008C
:1010600025130000EF120000EF120000EF12000045
:10107000EF120000EF120000EF120000EF1200006C
:10108000EF120000EF120000EF120000EF1200005C
:10109000EF120000EF120000EF120000EF1200004C
:1010A000EF120000EF120000EF120000EF1200003C
:1010B000EF120000EF12000000000000000000002E
:1010C000EF120000EF120000EF120000EF1200001C
:1010D000EF120000EF120000EF120000000000000D
:1010E0000000000000000000000000000000000000
:1010F00000000000000000000000000000000000F0
:1011000000000000000000000000000000000000DF
:1011100000000000000000000000000000000000CF
:1011200000000000000000000000000000000000BF
:1011300000000000000000000000000000000000AF
:10114000000000000000000000000000000000009F
:10115000000000000000000000000000000000008F
:10116000000000000000000000000000000000007F
:10117000000000000000000000000000000000006F
:10118000000000000000000000000000000000005F
:10119000000000000000000000000000000000004F
:1011A000000000000000000000000000000000003F
:1011B000000000000000000000000000000000002F
:1011C000000000000000000000000000000000001F
:1011D000000000000000000000000000000000000F
:1011E00000000000000000000000000000000000FF
:1011F00000000000000000000000000000000000EF
:1012000010B5054C237833B9044B13B10448AFF340
:1012100000800123237010BD780000200000000032
:10122000EC1D000008B5034B1BB103490348AFF3A5
:10123000008008BD000000007C000020EC1D0000C4
:10124000154B002B08BF134B9D46A3F5803A002198
:101250008B460F461348144A121A00F0A9FD0F4B93
:10126000002B00D098470E4B002B00D09847002051
:10127000002104000D000D48002802D00C48AFF3F7
:10128000008000F071FD2000290000F0D7F900F087
:1012900057FD00BF00000800000001200000000012
:1012A0000000000078000020A400002000000000E2
:1012B000000000000649074A074B9B1A03DD043B68
:1012C000C858D050FBDC00F061FBFFF7B9FF00000D
:1012D000F81D00000800002078000020FEE7FEE76F
:1012E000FEE7FEE7FEE7FEE7FEE7FEE7FEE7FEE7D6
:1012F00010B4094B0949D3F81825094C0A7001208C
:101300000021D2B2C4F81C25C3F808115861C3F8F3
:1013100008115DF8044B70470030004008000020C1
:101320000020004030B4084B084D094801224FF41A
:10133000807400212A61DA601A60C0F88041C3F825
:10134000401130BC704700BF00800040006000408A
:1013500000E100E030B40F4BD3F80821012A0AD194
:10136000D3F818350C49612B0B6004BF0B498A6018
:10137000084AC2F81C35094C064B094901250022D0
:1013800004206560C1F88001C3F81C21C3F808215E
:1013900030BC7047002000409400002000600040F6
:1013A00000E100E00F4B0122C3F81C0518469A60CB
:1013B000D0F81C31002BFBD000230A4AC0F81C31A6
:1013C000C0F81C15D2F81C31002BFBD000200123E3
:1013D0000449C2F81C015361D1F80431002BFBD041
:1013E000704700BF0030004070B5514A514E4FF079
:1013F000402101230C209366737030700A460B6104
:10140000D2F82031002BFBD049494B4C012000235E
:1014100088630443C2F8203105254FF47A40A04781
:10142000013DFAD14FF04023414A01215961092081
:101430009166FF22727030701A461961D2F820311D
:10144000002BFBD03A490120002388630525C2F810
:1014500020314FF47A40A047013DFAD14FF04023AC
:10146000334A012159610B20916607227270307056
:101470001A461961D2F82031002BFBD02C490120EB
:10148000002388630525C2F820314FF47A40A04735
:10149000013DFAD14FF04021254801230A224B613A
:1014A0008366327073700A460B61D2F82031002BCC
:1014B000FBD01F490120002388630525C2F8203195
:1014C0004FF47A40A047013DFAD14FF0402118482F
:1014D000012302224B618366727033700A460B61EE
:1014E000D2F82031002BFBD0114901200023886362
:1014F0000525C2F820314FF47A40A047013DFAD1CA
:101500004FF040230A4C0121032202205961A166B9
:10151000727030701A461961D2F82031002BFBD05E
:101520000348012300218363C2F82011536170BD79
:101530000060004098000020E01D00002DE9F04F01
:10154000064683B000286DD038490346002481FB4D
:101550000302DB17D3EBA20304F10104F7D1631EEE
:10156000DBB2334ADFF8D090012191664FF0402280
:1015700089F801300B2389F800301161D2F820314D
:10158000002BFBD02A4B2B4D0121996300230D43E7
:10159000C2F820314FF005084FF47A40A847B8F15F
:1015A0000108F9D14FF0402301275F61002C36D0AC
:1015B000E219DFF87CB000921C46CDF804801B4B8A
:1015C0004FEAE67883FB0623C8EBA30303EB830310
:1015D0000122A6EB4303CBF8682089F8007089F854
:1015E00001302261D4F82031002BFBD00123CBF84D
:1015F0003830019BC4F820314FF0050A4FF47A408F
:10160000A847BAF1010AF9D1084B83FB063601233A
:101610006361009B01379F42C8EBA606CFD103B0A0
:10162000BDE8F08F0446FF239BE700BF6766666650
:1016300000600040E01D0000980000204FF0A04432
:101640002DE98848BF4AC04EDFF828C3DFF828E3F9
:10165000BE4BBF49BF4D03206FF07047C4F8500721
:10166000C4F84407C4F84807C4F84C07C4F8207508
:10167000C4F838670027C4F83C67C4F84067C4F86A
:1016800034670126C4F81807C4F81C77C2F804634D
:10169000C2F810E5C2F824C50CF5807CC2F828C554
:1016A0000CF5807CC2F82CC50CF5881C0CF5817CEF
:1016B000C2F814C50CF5807CC2F818C50CF5807C06
:1016C000C2F81CC50CF5807CC2F820C5DFF8ACC29E
:1016D000C3F810C5ACF1FC0CC3F814C50CF5887C3C
:1016E000C3F818C5ACF5867CC3F81CC50CF5887C1E
:1016F000C3F820C5ACF5867CC3F824C50CF5887CFE
:10170000C3F828C5ACF5867CC3F82CC54FF00F0C88
:10171000C3F800C84FF4803C1E600423C1F804C322
:10172000DFF85CC2C1F80475C1F80805C1F81035CE
:10173000C1F840C50E60DFF84CC2C5F804C30621ED
:10174000C5F80C154FF040224FF007088249C5F844
:1017500014854FF0080AC5F82415C5F86C750B21DF
:101760002E60AE60C5F800350923C4F82007C4F820
:101770002C07C2F80C154FF08050C2F808A50221C2
:10178000C2F81035754BC2F8240505F58055C2F82E
:101790005475C2F84815C2F84435C2F80085FFF701
:1017A00023FE4FF01B094FF01A0B4FF0CD63C4F826
:1017B0006C776822C4F86877C5F80895C5F80CB549
:1017C000C5F824350523C5F888254146C5F80035F8
:1017D0001920FFF7E7FD39465846FFF7E3FD51466C
:1017E0004846FFF7DFFD10211C20FFF7DBFD3146E7
:1017F0003820FFF7D7FD31466B20FFF7D3FD432399
:10180000C5F81C352B46AE60D3F81C21002AFBD04E
:1018100000200121524AC3F81C011960D2F8083196
:10182000002BFBD001214E4BD2F818055161D3F8A3
:101830000421002AFBD044200121494AC3F81C0599
:101840009960D2F81C31002BFBD000200121444BC1
:10185000C2F81C011160D3F80821002AFBD0012234
:101860003F49D3F818055A61D1F80431002BFBD059
:101870003C4B3D4F3D4D3E4E394CDFF80C914FF403
:1018800080724021C3F8802047F0010AC3F880210C
:10189000012783F8081304228021C3F88020B8466A
:1018A000C3F8802183F802131A604323C4F81C355F
:1018B000C4F80880D4F81C31002BFBD00023C4F8F6
:1018C0001C312760D4F80831002BFBD0D4F8183530
:1018D0006761DBB2D4F80421002AFBD044222B70CC
:1018E000C4F81C25A760D4F81C31002BFBD00023C2
:1018F000C4F81C312760D4F80831002BFBD0D4F891
:1019000018356761DBB2D4F80421002AFBD02A78AD
:101910006B7043EA02231BB289FB0312DB17C3EB94
:10192000621333804FF47A7B4FF47A40D047BBF197
:10193000010BF9D1034BDF60B6F90000FFF7FEFDA4
:10194000B3E700BF006000400C00030000F001405E
:10195000008000400020004000E0D70198000020F7
:101960000030004000E100E0E01D00000800002021
:10197000A2000020010E0200010D020000610040E3
:1019800040420F00840202007FE0077E30B4B84B73
:101990001B78062B20D0B74B1B68062B00F08180EC
:1019A000B54AD2F8883043F47003C2F88830BFF3E8
:1019B0004F8FBFF36F8F4FF01023D3F80022002A10
:1019C000C0F28681D3F80432002BC0F28181AB4B88
:1019D000AB4A1A6030BC7047AA4B1B681D07DAD1AE
:1019E000A94B1B6803F0F002302A00F09B8003F043
:1019F000E003402B00F09680A34B1B6803F0F0033C
:101A0000302B00F0A080A04B1B6803F0F002302ABE
:101A100077D003F0E003402B73D09B4B1B6803F09F
:101A2000F003302B00F01481974B1B6803F0F00299
:101A3000302A52D003F0E003402B4ED0924B1B686B
:101A400003F0F003302B00F0F5808F4B1B6803F0A0
:101A5000F003302B00F0D7808B4B1B6803F0F003B2
:101A6000502B7ED0884B1B6803F0F002302A23D025
:101A700003F0E003402B1FD0834B1B6803F0F00200
:101A8000302A03D003F0E003402B84D14FF0804391
:101A9000D3F80024D20744BF6FF00102C3F800243A
:101AA00079E77A4B1B68062B7FF47AAF784A136884
:101AB00043F48063136073E7764B6D4A1B681278BA
:101AC000754903F04F03062A0B607FF464AF6D4B3A
:101AD0001B6819077FF45FAFCEE7654A11784FF0B6
:101AE000804300220629C3F80C21C3F81021C3F853
:101AF00038257FF450AF634B1B681B077FF44BAF57
:101B00009CE7664B5A4A1B6812786549C3F3423317
:101B1000062A0B607FF43FAF5A4B1B6819077FF40E
:101B20003AAF7AE75F4B524A1B6812785E49C3F3BB
:101B30000423062A0B607FF42EAF524B1B681C0750
:101B40007FF429AF58E74A4B584A1B78584911602F
:101B5000062B7FF420AF4B4B1B6818077FF41BAF9D
:101B600051E74FF08052534BD2F80414C3F82015BC
:101B7000D2F80814C3F82415D2F80C14C3F82815A9
:101B8000D2F81014C3F82C15D2F81414C3F8301579
:101B9000D2F81814C3F83415D2F81C14C3F8401541
:101BA000D2F82014C3F84415D2F82414C3F8481509
:101BB000D2F82814C3F84C15D2F82C14C3F85015D9
:101BC000D2F83014C3F85415D2F83414C3F86015A1
:101BD000D2F83814C3F86415D2F83C14C3F8681569
:101BE000D2F840142248C3F86C15D2F84414027895
:101BF000C3F87015062A7FF4CEAE224B1B68180777
:101C00007FF4C9AE2EE71A4B2B4C1B782B492C487E
:101C10002C4A0525256001250D6000243F21062B57
:101C2000046011607FF4B7AE164B1B681C077FF48D
:101C3000B2AE11E70E4B244A1B780321062B11602C
:101C40007FF4A9AE0F4B1B681D077FF4A4AEFCE622
:101C50001E4A0749D368097823F080730629D360A8
:101C60007FF499AE074B1B681A077FF494AEDBE64E
:101C7000E00F00F03001001000ED00E00C0000204B
:101C80000090D003E40F00F0E80F00F034010010E2
:101C90003C17004058020010E40E004044020010BF
:101CA0003C050040240300104035014074C007404B
:101CB0000DF0ADBA00C000401056004088560040FC
:101CC0001856004014560040A0050040F0ED00E01A
:101CD000184A0123C2F80435D2F80034002BFBD097
:101CE0004FF010231521134AC3F80012D2F8003424
:101CF000002BFBD04FF0102315210E4AC3F804121D
:101D0000D2F80034002BFBD000230A49C2F8043576
:101D1000D1F80034002BFBD0BFF34F8F0649074B9F
:101D2000CA6802F4E0621343CB60BFF34F8F00BF79
:101D3000FDE700BF00E0014000ED00E00400FA050F
:101D400008B5074B044613B10021AFF30080054BE3
:101D50001868836A03B19847204600F031F800BF45
:101D600000000000E81D000070B50D4D0D4C641B17
:101D7000A4100026A64209D10B4D0C4C00F022F80D
:101D8000641BA4100026A64205D170BD55F8043B83
:101D900098470136EEE755F8043B98470136F2E7DD
:101DA00070000020700000207000002074000020EF
:101DB00002440346934200D1704703F8011BF9E740
:101DC000FEE700BFF8B500BFF8BC08BC9E467047F0
:101DD000F8B500BFF8BC08BC9E4670470000000084
:101DE0000338FDD8704700001000002000000000FC
:081DF00050F4FF7F0100000028
:101DF800010200000090D003000000000000000075
:101E080000000000000000000000000000000000CA
:101E180000000000000000000000000000000000BA
:101E280000000000000000000000000000000000AA
:101E3800000000000000000000000000000000009A
:101E4800000000000000000000000000000000008A
:101E58000000000000000000251200000112000030
:04000003000012B532
:00000001FF
