:1010000000000120B5120000DD120000DF12000018
:10101000E1120000E3120000E512000000000000F1
:10102000000000000000000000000000E7120000C7
:10103000E912000000000000EB120000ED120000B9
:10104000EF120000EF12000049130000EF12000041
:10105000EF120000EF12000029130000EF12000051
:10106000F1120000EF120000EF120000EF1200007A
:10107000EF120000EF120000EF120000EF1200006C
:10108000EF120000EF120000EF120000EF1200005C
:10109000EF120000EF120000EF120000EF1200004C
:1010A000EF120000EF120000EF120000EF1200003C
:1010B000EF120000EF12000000000000000000002E
:1010C000EF120000EF120000EF120000EF1200001C
:1010D000EF120000EF120000EF120000000000000D
:1010E0000000000000000000000000000000000000
:1010F00000000000000000000000000000000000F0
:1011000000000000000000000000000000000000DF
:1011100000000000000000000000000000000000CF
:1011200000000000000000000000000000000000BF
:1011300000000000000000000000000000000000AF
:10114000000000000000000000000000000000009F
:10115000000000000000000000000000000000008F
:10116000000000000000000000000000000000007F
:10117000000000000000000000000000000000006F
:10118000000000000000000000000000000000005F
:10119000000000000000000000000000000000004F
:1011A000000000000000000000000000000000003F
:1011B000000000000000000000000000000000002F
:1011C000000000000000000000000000000000001F
:1011D000000000000000000000000000000000000F
:1011E00000000000000000000000000000000000FF
:1011F00000000000000000000000000000000000EF
:1012000010B5054C237833B9044B13B10448AFF340
:1012100000800123237010BD740000200000000036
:101220005C19000008B5034B1BB103490348AFF339
:10123000008008BD00000000780000205C1900005C
:10124000154B002B08BF134B9D46A3F5803A002198
:101250008B460F461348144A121A00F05DFB0F4BE1
:10126000002B00D098470E4B002B00D09847002051
:10127000002104000D000D48002802D00C48AFF3F7
:10128000008000F025FB2000290000F07BF800F032
:101290000BFB00BF00000800000001200000000060
:1012A00000000000740000209400002000000000F6
:1012B000000000000649074A074B9B1A03DD043B68
:1012C000C858D050FBDC00F015F9FFF7B9FF00005B
:1012D000681900000800002074000020FEE7FEE707
:1012E000FEE7FEE7FEE7FEE7FEE7FEE7FEE7FEE7D6
:1012F00030B4094B09480A4C0A490122C2604FF434
:101300008075DA6000201A600222C4F88051C3F8A8
:1013100040010A6130BC704700800040006000401E
:1013200000E100E000ED00E04FF0A0420549D2F8F6
:101330000835002043F40033C2F80835C1F8000135
:10134000704700BF006000400B4BD3F80821012A12
:1013500006D10A4AD3F8181511601268C3F81C2583
:10136000054B074900220420C1F88001C3F81C2165
:10137000C3F80821704700BF002000409000002003
:1013800000E100E04FF0A04303256FF0704C80B502
:10139000C3F848574B4FC3F84457C3F85057C3F8E6
:1013A0004C57C3F820C54FF0000CC3F83877464EB1
:1013B000C3F83C77C3F84077C3F83477C3F81857BD
:1013C000C3F81CC7414B4248424C4349434A01279A
:1013D000C6F80473C6F8103503F58073C6F82435D3
:1013E00003F58073C6F8283503F58073C6F82C35ED
:1013F00003F5881303F58173C6F8143503F580737C
:10140000C6F8183503F58073C6F81C3503F58073EC
:10141000C6F82035324BC0F81035FC3BC0F8143507
:1014200003F58873C0F818350433C0F82035A3F5E8
:101430008673C0F8243503F58873C0F828350F2368
:10144000C0F800384FF480330760C4F804332548EF
:10145000C4F804C50423C4F80855C4F81035C4F80A
:10146000400521482760C1F804030620C1F80C0597
:101470000720C1F814051D48C1F8240580244FF445
:101480008070C1F86CC50F608F60C1F80035C2F87C
:101490008000C2F8800182F808431060C2F88030F2
:1014A000C2F8803182F80243136020BF104D3D43E3
:1014B0004FF47A744FF47A40A847013CFAD1B760F0
:1014C000F6E700BF0C00030000600040010D0200C1
:1014D00000F00140008000400020004000E100E0FA
:1014E0000061004040420F008402020000E0D7018A
:1014F0005019000030B4B84B1B78062B20D0B74BE6
:101500001B68062B00F08180B54AD2F8883043F47E
:101510007003C2F88830BFF34F8FBFF36F8F4FF067
:101520001023D3F80022002AC0F28681D3F80432B7
:10153000002BC0F28181AB4BAB4A1A6030BC7047C4
:10154000AA4B1B681D07DAD1A94B1B6803F0F002F8
:10155000302A00F09B8003F0E003402B00F09680DF
:10156000A34B1B6803F0F003302B00F0A080A04BCE
:101570001B6803F0F002302A77D003F0E003402B21
:1015800073D09B4B1B6803F0F003302B00F01481E9
:10159000974B1B6803F0F002302A52D003F0E003AF
:1015A000402B4ED0924B1B6803F0F003302B00F021
:1015B000F5808F4B1B6803F0F003302B00F0D780D1
:1015C0008B4B1B6803F0F003502B7ED0884B1B68BD
:1015D00003F0F002302A23D003F0E003402B1FD0A9
:1015E000834B1B6803F0F002302A03D003F0E003C2
:1015F000402B84D14FF08043D3F80024D20744BF5E
:101600006FF00102C3F8002479E77A4B1B68062BC0
:101610007FF47AAF784A136843F48063136073E70A
:10162000764B6D4A1B681278754903F04F03062A02
:101630000B607FF464AF6D4B1B6819077FF45FAFDD
:10164000CEE7654A11784FF0804300220629C3F89F
:101650000C21C3F81021C3F838257FF450AF634B39
:101660001B681B077FF44BAF9CE7664B5A4A1B680D
:1016700012786549C3F34233062A0B607FF43FAF0B
:101680005A4B1B6819077FF43AAF7AE75F4B524A0F
:101690001B6812785E49C3F30423062A0B607FF4AB
:1016A0002EAF524B1B681C077FF429AF58E74A4BFB
:1016B000584A1B7858491160062B7FF420AF4B4BDA
:1016C0001B6818077FF41BAF51E74FF08052534B54
:1016D000D2F80414C3F82015D2F80814C3F824155E
:1016E000D2F80C14C3F82815D2F81014C3F82C152E
:1016F000D2F81414C3F83015D2F81814C3F83415FE
:10170000D2F81C14C3F84015D2F82014C3F84415BD
:10171000D2F82414C3F84815D2F82814C3F84C158D
:10172000D2F82C14C3F85015D2F83014C3F854155D
:10173000D2F83414C3F86015D2F83814C3F864151D
:10174000D2F83C14C3F86815D2F840142248C3F804
:101750006C15D2F844140278C3F87015062A7FF489
:10176000CEAE224B1B6818077FF4C9AE2EE71A4B8A
:101770002B4C1B782B492C482C4A0525256001252C
:101780000D6000243F21062B046011607FF4B7AE8A
:10179000164B1B681C077FF4B2AE11E70E4B244AB0
:1017A0001B780321062B11607FF4A9AE0F4B1B6839
:1017B0001D077FF4A4AEFCE61E4A0749D3680978EA
:1017C00023F080730629D3607FF499AE074B1B6822
:1017D0001A077FF494AEDBE6E00F00F03001001052
:1017E00000ED00E0080000200090D003E40F00F0BE
:1017F000E80F00F0340100103C17004058020010C0
:10180000E40E0040440200103C0500402403001098
:101810004035014074C007400DF0ADBA00C0004033
:10182000105600408856004018560040145600409C
:10183000A0050040F0ED00E0184A0123C2F804358D
:10184000D2F80034002BFBD04FF010231521134A9F
:10185000C3F80012D2F80034002BFBD04FF0102355
:1018600015210E4AC3F80412D2F80034002BFBD025
:1018700000230A49C2F80435D1F80034002BFBD00C
:10188000BFF34F8F0649074BCA6802F4E062134367
:10189000CB60BFF34F8F00BFFDE700BF00E001400A
:1018A00000ED00E00400FA0508B5074B044613B14B
:1018B0000021AFF30080054B1868836A03B1984795
:1018C000204600F031F800BF000000005819000069
:1018D00070B50D4D0D4C641BA4100026A64209D115
:1018E0000B4D0C4C00F022F8641BA4100026A642FD
:1018F00005D170BD55F8043B98470136EEE755F821
:10190000043B98470136F2E76C0000206C00002091
:101910006C0000207000002002440346934200D176
:10192000704703F8011BF9E7FEE700BFF8B500BFF9
:10193000F8BC08BC9E467047F8B500BFF8BC08BCB0
:101940009E467047000000000000000000000000FC
:101950000338FDD8704700000C0000200000000094
:08196000E0F8FF7F0100000028
:101968000090D0030000000000000000000000000C
:10197800000000000000000000000000000000005F
:10198800000000000000000000000000000000004F
:10199800000000000000000000000000000000003F
:1019A800000000000000000000000000000000002F
:1019B800000000000000000000000000000000001F
:0C19C800000000002512000001120000C9
:04000003000012B532
:00000001FF
