:020000040002F8
:10600000C0770020156202001D6202001F620200BC
:1060100021620200236202002562020000000000EB
:1060200000000000000000000000000027620200E5
:1060300029620200000000002B6202002D620200B3
:106040002F6202002F6202002F6202002F62020004
:106050002F6202002F6202002F6202002F620200F4
:106060002F6202002F6202002F6202002F620200E4
:106070002F6202002F6202002F6202002F620200D4
:106080002F6202002F6202002F6202002F620200C4
:106090002F6202002F6202005D6202002F62020086
:1060A0002F6202002F6202002F6202002F620200A4
:1060B0002F6202002F6202000000000000000000BA
:1060C0002F6202002F6202002F6202002F62020084
:1060D0002F6202002F6202002F6202000000000007
:1060E00000000000000000000000000000000000B0
:1060F00000000000000000000000000000000000A0
:10610000000000000000000000000000000000008F
:10611000000000000000000000000000000000007F
:10612000000000000000000000000000000000006F
:10613000000000000000000000000000000000005F
:10614000000000000000000000000000000000004F
:10615000000000000000000000000000000000003F
:10616000000000000000000000000000000000002F
:10617000000000000000000000000000000000001F
:10618000000000000000000000000000000000000F
:1061900000000000000000000000000000000000FF
:1061A00000000000000000000000000000000000EF
:1061B00000000000000000000000000000000000DF
:1061C00000000000000000000000000000000000CF
:1061D00000000000000000000000000000000000BF
:1061E00000000000000000000000000000000000AF
:1061F000000000000000000000000000000000009F
:10620000DFF80CD000F018F8004800478166020063
:10621000C07700200648804706480047FEE7FEE7B3
:10622000FEE7FEE7FEE7FEE7FEE7FEE7FEE7FEE746
:106230006162020001620200064C074D06E0E06860
:1062400040F0010394E8070098471034AC42F6D3BD
:10625000FFF7DAFF346802005468020000F04CBA1D
:10626000F0B5B5480023021D0178101D01254FF03F
:10627000805406290BD11678360708D10678C6F364
:106280000316032E06D0042E04D0052E02D00629B4
:1062900007D00EE0B4F82463A84FC6F304263E608E
:1062A00002E01678360704D10678C6F30316032EEB
:1062B00002D0062904D00FE0A24FA14E7E670EE067
:1062C0001678360708D10678C6F30316032E06D0D3
:1062D000042E04D0052E02D0062907D00EE0D4F8F3
:1062E0004462994FC6F342363E6002E016783607A4
:1062F00004D10678C6F30316032E02D0062906D071
:1063000011E0924E376827F0807737600EE01678FC
:10631000360708D10678C6F30316032E06D0042EDE
:1063200004D0052E02D006290AD011E04FF0804695
:10633000C6F80C31C6F81031834E361F336002E0C8
:106340001678360704D10678C6F30316032E02D05A
:10635000062905D00CE07C4F032664373E600AE036
:106360001678360704D10678C6F30316032E02D03A
:1063700006290DD014E0764F05263E60744E78361F
:106380003560734E083633603F263F1D3E6002E0A5
:106390001678360704D10678C6F30316052E02D008
:1063A000062957D062E06B4E36686B4F3E60694EEF
:1063B000361D36683F1D3E60664E083636683F1D06
:1063C0003E60644E0C3636683F1D3E60614E1036AE
:1063D00036683F1D3E605F4E143636683F1D3E6096
:1063E0005C4E183636685C4F20373E60594E1C367E
:1063F00036683F1D3E60574E203636683F1D3E6072
:10640000544E243636683F1D3E60524E283636685C
:106410003F1D3E604F4E2C3636683F1D3E604D4E50
:10642000303636684C4F40373E604A4E3436366818
:106430003F1D3E60474E383636683F1D3E60454E34
:106440003C3636683F1D3E60424E403636683F1D42
:106450003E6002E01678360708D10678C6F30316C8
:10646000032E06D0042E04D0052E02D0062907D014
:1064700019E0D4F85812394A01F04F01116002E0D6
:10648000117809070FD10078C0F30310032803D057
:10649000042801D0052806D131480168C90702D077
:1064A0006FF001010160D4F83001062808D1D4F85A
:1064B0003401062804D12B48016841F48061016051
:1064C00022487438016841F470010160BFF34F8FB6
:1064D000BFF36F8F4FF01021D1F80002002803DBCB
:1064E000D1F80402002822DA1F4A15601F48046808
:1064F000002CFCD01524C1F800420568002DFCD00A
:10650000C1F8044201680029FCD013600168002929
:10651000FCD0BFF34F8F0D48F0380168144A01F4E6
:10652000E06111430160BFF34F8F00BFFDE71249E7
:1065300010480860F0BD0000E00F00F04035014059
:106540000DF0ADBA00C007403C050040FCED00E096
:10655000105600400404001020C50040E40E004026
:10656000000400403C17004004E5014000E4014005
:106570000400FA050090D003B857002002E008C8D4
:10658000121F08C1002AFAD170477047002001E0AD
:1065900001C1121F002AFBD17047000072B60948E2
:1065A0000068C00700D000BEBFF34F8F0548E43835
:1065B0000168054A01F4E06111430160BFF34F8FA8
:1065C00000BFFDE7F0ED00E00400FA050EB5002184
:1065D0000091CDE901106A4644F20100FFF7DEFFA9
:1065E0000EBD00002DE9FC410646C0074FF0000536
:1065F0000ED0104F00240122385D00950023114673
:10660000019500F05BF8641C042CF4D300F02EF824
:10661000B0070DD5074E0024361D0022305D032340
:1066200000951146019500F049F8641C042CF4D340
:10663000BDE8FC81B667020007490B5C4FF0A04142
:10664000D1F804250120984020EA0203C1F808355A
:106650001040C1F80C057047B66702000249085C9B
:10666000012100F03DB80000B667020010B500241B
:106670002046FFF7F3FF641C042CF9D310BD000083
:106680000120FFF7AFFF0B48016841F003010160F3
:10669000094C4FF47A4600252846FFF7CDFF6427C2
:1066A000611C304688477F1EFAD16D1C042DF3DB38
:1066B000F1E700000C150240B067020070B541EA36
:1066C0004201DDE904564FF0A04441EA830141EA6A
:1066D000052104EB800041EA0641C0F8001770BDB7
:1066E00001224FF0A043824011B1C3F80825704742
:1066F000C3F80C25704700000EB50749684600F046
:106700002BF805E0D0E900108847684600F03BF818
:1067100002980028F6D10EBDEC6702001FB568464E
:106720004BDF30B1052814D004B0BDE81040FFF7AE
:106730004DBF084901A800F00FF806E0D0E900219C
:106740000098904701A800F01EF803980028E6D0B2
:10675000F4E71FBD28680200016009684160AFF3DB
:10676000008010B5D0E900215368994201D1002181
:1067700004E0D1E90034A34202D01946816010BD83
:1067800008314160F0E7816800290BD00268926807
:106790000A44826041684B689A4203D108314160E3
:1067A000FFF7DFBF7047000000000000000000009E
:1067B0000338FDD87047111213140D0E0F1000008E
:1067C00000000000000000000000000000000000C9
:1067D00001000007C0670200D06702000800000047
:1067E000F86702000868020008000000086802005C
:1067F000186802000800000000000000000000000F
:106800000000000000000000546802005C68020004
:106810000000000000000000000000000000000078
:106820000000000000000000186802002868020054
:10683000080000005C680200B85700200400000057
:106840007C65020060680200BC5700200420000044
:106850008C6502001D670200000000000090D0035C
:040000050002620192
:00000001FF
